:020000041000EA
:100000000000010829130010A9160010B9150010EE
:1000100000000000000000000000000000000000E0
:100020000000000000000000000000002516001085
:100030000000000000000000AD160010B116001016
:10004000191000103D1000106110001085100010F4
:10005000A9100010CD100010F110001015110010A3
:10006000B5160010B9160010BD160010C11600100C
:10007000C5160010C9160010CD160010D1160010BC
:1000800000B5012034490A6852080240002A01D014
:10009000022001E00968084000BD334801680800FB
:1000A000C007C00F704700B50100FF20002909D02C
:1000B000022907D22D4889004018001F0168080056
:1000C000C007C00FC0B200BD00002C480068810806
:1000D0000800C007C00F7047000038B505002800B1
:1000E000C0B203280DD3224C18222249200000F070
:1000F000D3FA0020E075204821490860002000F074
:100100002BFB2048EDB2A90040580007000F32BD7C
:10011000000038B505002800C0B203280ED3144CE7
:1001200018221449200000F0B7FA0020E075DE2004
:10013000C00013490860002000F00EFB1148EDB22A
:10014000A900405800098007800F32BD0E480068A2
:10015000000EC0B270470000241526400A4800680F
:10016000000AC0B2704700004015264040162640E5
:10017000F40D0008F4130010C20600001000274020
:100180000C0E0008401226400810204038B504002C
:10019000042C0ED3124D18221249280000F07CFACC
:1001A0000020E875FF2096300F490860002000F01D
:1001B000D3FA0A48A10040584007400F010009B295
:1001C000042907D10448A1004058C106C90E802067
:1001D0004000084300B232BD000126400012264014
:1001E000F40D0008481400100C0E00081F4909689F
:1001F0008A03920B0260090E0A00D207D20FC27165
:10020000184909680A00D204D20C82800A00120C34
:10021000D2B20281090CC9B24181114909680F2289
:100220000B00134003730B091A4042730A0AD204ED
:10023000D20CC281090F8907890F01740A49096824
:100240000A0A5207520F82710A00120CD205D20D0F
:100250004282890F0A00D207D20F02757047000050
:1002600038152640341526403C15264030152640CA
:1002700000B502000120002A1AD0022A18D20E4826
:1002800092008018001F00684206520E0A601F226A
:10029000030A13404B60030C1A408A60020F920756
:1002A000920F4A73C00E0200D207D20F0A730020C9
:1002B000C0B200BD000000000016264080B501005D
:1002C0008648182200F06AFA01208549087000204B
:1002D00002BD00B583490968C90F002907D08049CC
:1002E0000978002907D100210160032000BD002109
:1002F00001600320FAE77949096801600020F5E709
:10030000000010B50400FFF7BBFE002803D1002059
:10031000206003200BE072480078002804D06F486A
:1003200080682060002002E000202060032010BDD3
:10033000000000B56A490978002904D06749496876
:100340000160002002E000210160032000BD00B533
:100350008D490968C90F002907D06149097800292A
:1003600007D100210160032000BD002101600320AE
:10037000FAE75A49C96801600020F5E7000000B5B6
:1003800082490968C90F002907D055490978002911
:1003900007D100210160032000BD0021016003207E
:1003A000FAE74E49096901600020F5E7000010B541
:1003B0000400FFF78AFE002803D1002020600320FC
:1003C0000BE047480078002804D04448406920608A
:1003D000002002E000202060032010BD000010B5C6
:1003E0000C00C0B2FFF7D2FE00280CD0401E0ED089
:1003F000401E10D087214900401A10D0401E12D054
:10040000C01E14D017E02000FFF763FF16E02000A5
:10041000FFF78FFF12E02000FFF773FF0EE02000D0
:10042000FFF795FF0AE02000FFF7C1FF06E020007C
:10043000FFF7A5FF02E000202060032010BD80B57B
:1004400001000020FFF7CBFF02BD80B500221300A2
:10045000DBB2834202D20A60012003E0401CC0B23A
:10046000FFF7BDFF02BD30B587B004006846FFF757
:10047000E6FF0100C9B2002903D000212160C0B20B
:1004800028E001A8FFF7B2FE01AD287C022803D1C5
:100490000098206000201DE064480068C00F00281C
:1004A00008D0FFF7FAFDC0B2002807D10020206075
:1004B00003200FE00098206000200BE000980199D5
:1004C0004843A98800F084F9E979491C00F080F9D3
:1004D0002060002007B030BD00000000DC0D0008E7
:1004E000240E00081815264078B585B005000C00CC
:1004F00069462800C0B2FFF7A8FF0100C9B2002971
:1005000003D000212160C0B23CE001A92800C0B2A4
:10051000401CFFF7ADFE01A8407B022803D10098E4
:10052000206000202EE0002630002900C0B2C9B2B1
:10053000884202D22660012024E02800C0B2401C7C
:10054000FFF7B1FD002801D0012000E03000C0B26B
:10055000002802D12660032014E03548EDB2A9003E
:100560004058C00F00280BD00098019948430299C9
:1005700000F02EF9039900F02BF92060002001E033
:100580002660032006B070BD081526400C152640D5
:1005900010B50023421E0400E4B2002C03D1080071
:1005A000FFF761FF0CE01400DBB2E4B2A34204D316
:1005B0001000C0B2FFF798FF02E0C0B2FFF70FFFD4
:1005C00010BD38B504000D002000C0B2FFF785FD56
:1005D0006946C0B2FFF7DCFF0100C9B2002903D0B1
:1005E00000212960C0B20FE02000C0B2FFF791FDEA
:1005F000C0B2002805D002280BD006D303280CD0A7
:100600000FE000982860002032BD00984008286064
:10061000F9E7009880082860F5E70098C00828608E
:10062000F1E7002028600320EEE7000030152640A7
:10063000001626401CB5040069460020FFF7C1FFE4
:100640000100C9B2002903D000212160C0B209E035
:10065000FFF77CFD01000098C9B2491C00F0B8F812
:100660002060002016BD1CB504006846FFF7E2FFBD
:100670000100C9B2002901D0C0B208E0FFF76EFD49
:1006800001000098491C00F0A3F82060002016BD6E
:1006900080B5FFF7E8FF02BD71B58B0709D0521E88
:1006A00028D30B780370401C1B421FD0491C8B07BA
:1006B000F5D1121F3ED3274CE50140C9331BB3438C
:1006C0002B4209D1830716D140C0121F32D340C933
:1006D000331BB3432B42F7D0121DFF231E4205D01C
:1006E0000670401C360A521E1E42F9D1110000222B
:1006F00000F0C6F871BDDB4216D0401E4670360AC7
:100700004680360C0671001D121F06D340C9331BEC
:10071000B3432B42F2D0401CDEE7401C0AE040C944
:10072000331BB3432B42D7D10680360C4680001DC5
:10073000121FF4D2121D0BD00B780370521E07D07B
:10074000401C491C1B42F7D10370401C521EFBD1B8
:1007500071BD00000101010100B501BEFEE780B5D9
:100760000C4A0D490B68934210D00A6002684A6037
:1007700042688A608268CA60C2680A6102694A6126
:1007800042698A618269CA61C069086200F099F8A9
:1007900001BD0000F3F2F1F0B80D000870B4103A9A
:1007A00003D378C9103A78C0FBD2530701D318C9D4
:1007B00018C001D508C908C0D20704D30B8803802C
:1007C000891C801C002A01D50B78037070BC70470F
:1007D0000022030A8B420BD203098B4219D2430831
:1007E0008B422ED2411A00D2014652411046704728
:1007F000FF2209023FD012068B4205D312120902D2
:100800008B4201D31212090203098B4219D300E073
:10081000090AC3098B4201D3CB01C01A5241830993
:100820008B4201D38B01C01A524143098B4201D341
:100830004B01C01A524103098B4201D30B01C01A6C
:100840005241C3088B4201D3CB00C01A52418308E6
:100850008B4201D38B00C01A524143088B4201D313
:100860004B00C01A5241884200D3401A5241CFD2A5
:1008700001461046704708B500F026F808BD000094
:10088000094205D0830705D00270401C491EF9D1EA
:10089000704700001300103906D330B4140015005F
:1008A00010393CC0FCD230BC490700D30CC000D585
:1008B00004C0890002D30280801C002900D5027088
:1008C000704700B5FEE700007047000000B501006A
:1008D00009B2002905D40121C006C00E81409C4800
:1008E000016000BDF0B5020012B2002A18D418222F
:1008F000984B040024B2A408A4001C59FF2506004C
:10090000F6001640B540AC438901C9B20500ED00C0
:100910002A409140214300B28008800019501CE019
:100920000F228D4C182503001BB21340083B9B0877
:100930009B00060036B23240083A92089200A25854
:10094000FF260700FF002F40BE40B2438901C9B215
:10095000C0000540A9401143E150F0BD80B500F052
:1009600005F800F092F800F0A9F801BDFEB5684660
:100970007A490CC90CC008390838002630000AE052
:100980006A460300DBB2DB00D2185268521C1140E9
:1009900000290ED1401C0100C9B200290AD107214B
:1009A0006A460300DBB2DB00D2580A40002AE7D0D7
:1009B000FEE7FEE76A4C072021680140002900D0CD
:1009C000FEE7684F3968491C0840002800D0FEE760
:1009D000350024E068462900C9B2C90040184168C2
:1009E00068462A00D2B2D200805800F044F815E0E0
:1009F00030000028EED02168491E68462A00D2B295
:100A0000D200805800F037F868462900C9B2C90002
:100A1000401841683868401C00F02DF86D1C280013
:100A2000C0B2002826D168462900C9B2C900405882
:100A3000002814D0206869462A00D2B2D200895812
:100A400088420AD368462900C9B2C90040184068E4
:100A50002168884201D30120CBE73000C9E768460E
:100A60002900C9B2C9004018406821688842BFD334
:100A70000120BEE7F7BD80B50022002302E00CC0D4
:100A8000083808308842FAD301BD30B536488008AE
:100A90003649374A002308E01C00E4B2A400145988
:100AA0001D00EDB2AD004C515B1C1C000500E4B212
:100AB000EDB2AC42F0D32F48016030BD10B5102329
:100AC00011212A4800221C00E4B2A4001459DBB210
:100AD0009B00C4500B00DBB29B00D258C9B2890006
:100AE000425001210020FFF7FDFE00210120FFF709
:100AF000F9FE0020FFF7EAFE0120FFF7E7FE0121E3
:100B00000220FFF7EFFE01210320FFF7EBFE01219A
:100B10000420FFF7E7FE01210520FFF7E3FE012196
:100B20000620FFF7DFFE01210720FFF7DBFE012192
:100B30000420C043FFF7D6FE01210120C043FFF788
:100B4000D1FE01210020C043FFF7CCFE10BD000004
:100B500000E100E000E400E01CED00E08016001081
:100B60008C1300109013001080000000000F00088C
:100B70000000001008ED00E038B500F051F97849A8
:100B800001240868032290432043086075480A68DE
:100B900002400A6074490A6803239A4322430A60A8
:100BA0000A6802400A6071490A6803239A43224393
:100BB0000A600A68104008606D4801680F2291437E
:100BC000214301606B4801680722914301606A4933
:100BD0006A480A6802400A6069490A681202120AF1
:100BE00080235B0413430B600A681040086065486B
:100BF000016807229143016063480168634A0A4023
:100C0000802149001143016001687F22914328221D
:100C10000A43026001685E4A0A408021890211434A
:100C2000016080252D06016829430160594800684C
:100C300020400028FAD058480168072291430160FB
:100C4000564908680F229043204308603020C04373
:100C50000A6802400A600A682A430A6050490A6822
:100C60000F239A4322430A600A681040102202436D
:100C70000A6008682843086000F0BFF84948016826
:100C80000D43056001680C43046000F0ABF800F010
:100C900001F831BD38B586B0684643491822FFF7E0
:100CA0007DFD6846FFF70AFBC0B200280DD03F4C1F
:100CB00018223F492000FFF7EFFC0020E075D0200C
:100CC0003C4908600020FFF747FD3B4D2800FFF737
:100CD000DFFCC0B200280DD0344C1822344920006B
:100CE000FFF7DAFC0020E075D220324908600020CE
:100CF000FFF732FD314C28682060206830494018E9
:100D00003049FFF765FD30490860304D20683049B3
:100D10004018FA218900FFF75BFD28602868C003AE
:100D20002C49086007B030BD2B4800688007800F51
:100D3000704770B5040000F083F80600FFF7F4FF79
:100D4000032808D025480460A9B225480843032198
:100D5000014321480160300000F076F870BD0000CA
:100D6000C4132040FFFCFFFF0013204080132040ED
:100D7000000024400015264008002040FF00FFFF2F
:100D8000081020400412264000162640FFE0FFFF16
:100D9000FFFFE0FF40162640081226404012264082
:100DA00044122640081526405C160010F40D000879
:100DB000941300100C0E0008100E0008140E00080A
:100DC0003F420F0040420F001C0E0008180E0008A2
:100DD000E7030000200E000800122040000220401F
:100DE0000000FA0580B500F03BF813490A680323B8
:100DF00013430B6000F038F801BD80B500F030F807
:100E00000D490A6803239A43012313430B600A68C0
:100E100003239A43022313430B6000F025F801BD1E
:100E200080B5FFF7EAFF05480168490049080160FD
:100E3000FFF7D8FF01BD000040C0264000C026409B
:100E4000EFF3108072B6704780F31088704700008F
:100E5000801C800803D0401C801EFCD100BF70475E
:100E6000EFF3108072B6704780F31088704700006F
:100E700070B55F4BC018C00900015E4BC318042950
:100E80000CD21F251C68CE002800B0408443D2B28B
:100E90001540C800854025431D600CE0FC311F252E
:100EA0005C68CE002800B0408443D2B21540C80030
:100EB000854025435D6070BD00B5002A03D1012245
:100EC0008A40426002E001228A40826000BD30B464
:100ED00003008C000F25596C2800A0408143154069
:100EE000A5400D435D6430BC704730B4030001255C
:100EF0009C6C28008840844315408D4025439D64A8
:100F000030BC704730B403000125DC6C28008840F9
:100F1000844315408D402543DD6430BC704730B4B8
:100F200003004C0010340325D96C2800A0408143F5
:100F30001540A5400D43DD6430BC70474269012275
:100F40008A4042614069704730B4030001259C69C2
:100F500028008840844315408D4025439D6130BC66
:100F6000704730B403004C000325196C2800A040E2
:100F700081431540A5400D431D6430BC7047F8B552
:100F800004000025002C30D01600002E2DD00F00BC
:100F9000326839002000FFF78FFF327A39002000D5
:100FA000FFF766FF726939002000FFF79EFFB26904
:100FB00039002000FFF7A6FFF26939002000FFF793
:100FC000AEFF726839002000FFF781FFF268390038
:100FD0002000FFF7C6FF39002000FFF7AFFF32699E
:100FE00039002000FFF7B0FF00E0034D2800F2BDFC
:100FF0000000CFBF0000304001005A0000B50100E2
:1010000009B2002905D40121C006C00E81404A481A
:10101000016000BD00B5FEE780B54848006848485B
:101020000068C10F002905D046498005800D800069
:10103000085880470020FFF7E1FF01BD80B5424816
:10104000006842480068C10F002905D03D4980056D
:10105000800D8000085880470120FFF7CFFF01BDB9
:1010600080B53B4800683B480068C10F002905D0A7
:1010700034498005800D8000085880470220FFF722
:10108000BDFF01BD80B53448006834480068C10F19
:10109000002905D02B498005800D80000858804725
:1010A0000320FFF7ABFF01BD80B52D4800682D4838
:1010B0000068C10F002905D022498005800D8000FD
:1010C000085880470420FFF799FF01BD80B52648E6
:1010D000006826480068C10F002905D0194980051D
:1010E000800D8000085880470520FFF787FF01BD6D
:1010F00080B51F4800681F480068C10F002905D04F
:1011000010498005800D8000085880470620FFF7B1
:1011100075FF01BD80B51848006818480068C10F08
:10112000002905D007498005800D800008588047B8
:101130000720FFF763FF01BD80E200E08816001082
:1011400000112040000800088C16001004112040F7
:101150009016001008112040941600100C11204029
:1011600098160010101120409C16001014112040F9
:10117000A016001018112040A41600101C112040C9
:10118000F8B504000D00334F387800280ED02D4EEE
:1011900018222D493000FFF77FFA0020F075CF208C
:1011A00040002A4908600020FFF7D6FA20002900F5
:1011B00001223A7080225204002399420AD301D8B6
:1011C000904207D3244A04000D0024A003C800194C
:1011D000694102E00200002000211D4B00241C6038
:1011E000204D2A60214A146005221A601A68D20331
:1011F000FCD51C600029DDD10028DBD13C70F1BD9D
:1012000070B50500184E306800280ED10D4C18221C
:101210000D492000FFF740FA0020E075E52040006E
:101220000A4908600020FFF797FA2C00306810493F
:10123000FFF7CEFA00212200002300F01BF8FFF791
:101240009FFF70BDF40D00089C1400100C0E0008E8
:1012500010E000E0250E0008FFFFFF00010000FF86
:10126000FFFFFFFF14E000E0100E000818E000E0B0
:1012700040420F0030B4434351435D18010C0C0051
:10128000130C5C432D1980B2434392B251430024A6
:10129000C918644124040B04090C09195043C018EF
:1012A000694130BC7047F1B401684118436858087F
:1012B0000A1800988068DB0701D54B46C018914298
:1012C0002DD00D78491C032403262E4002D10E7820
:1012D000F61C491C2B090F2B07D10B780F33491C27
:1012E00003E00F78491C0770401C761EF9D1002BD3
:1012F000E5D00E78491CAD082C40032C01D10C78A8
:10130000491C24023419654244190025AE1E9E4230
:10131000D5D02678641C0670401C6D1CF6E700983A
:101320000C30F2BC7047000072B6104810490860DB
:10133000BFF34F8F0120C0040E490A6802430A60C0
:101340000D490A6802430A600C490A6802430A60B0
:10135000002000210D4A03C26A45FCD1084FB8475E
:10136000084FB847084FB847FEE7000000000010DC
:1013700008ED00E00013204080132040A01320401F
:101380005D090010711500104116001000FF0008E3
:10139000FFFF0008443A5C54726176656F5C54321A
:1013A000475F53616D706C655F4472697665725F0B
:1013B0004C6962726172795F382E332E305C7476BC
:1013C00069696265316D5C7372635C7379737465AE
:1013D0006D5C7265765F645C73797374656D5F7460
:1013E0007669696265316D5F636D30706C75732EFF
:1013F00063000000443A5C54726176656F5C54325D
:10140000475F53616D706C655F4472697665725FAA
:101410004C6962726172795F382E332E305C74765B
:1014200069696265316D5C7372635C64726976656B
:1014300072735C737973636C6B5C63795F737973DC
:10144000636C6B2E68000000443A5C5472617665F0
:101450006F5C5432475F53616D706C655F447269B5
:101460007665725F4C6962726172795F382E332ED5
:10147000305C747669696265316D5C7372635C645B
:101480007269766572735C737973636C6B5C637994
:101490005F737973636C6B2E63000000443A5C5495
:1014A000726176656F5C5432475F53616D706C6535
:1014B0005F4472697665725F4C6962726172795FCE
:1014C000382E332E305C636F6D6D6F6E5C7372639C
:1014D0005C647269766572735C7379737469636B4B
:1014E0005C63795F7379737469636B2E63000000CA
:1014F00001228A40C260704710B562B6FFF73CFB1C
:101500000848FFF716FC084C084A00212000FFF7A6
:1015100036FD0748FFF774FE00212000FFF7E8FFC3
:10152000F7E700000000081080093140840D000832
:1015300050C3000070B40123002413E00168001DB3
:10154000194202D04D466918491E0C60091D121F30
:10155000042AFAD20D00960701D50C80AD1C1A4062
:1015600000D02C700268001D002AE7D170BC7047C3
:1015700010B5074979441831064C7C44163404E010
:10158000081D0A68891888470100A142F8D110BDDA
:1015900008000000240000009DFFFFFF7000000015
:1015A000B80D000800000000FFFCFFFF260100004E
:1015B0003E0000000008000804207146084202D0E6
:1015C000EFF3098001E0EFF3088000B50149884797
:1015D00000BD00005F07001000F00EF8002801D0E9
:1015E000FFF7C6FF00BF00BF002000BF00BFFFF72E
:1015F00083FF00F003F800000020704780B500F082
:1016000001F801BD0746384600F002F8FBE700008C
:1016100080B500BF00BF024A11001820ABBEFBE737
:101620002600020004207146084201D0EFF3098031
:10163000EFF3088000B50149884700BD751600101A
:101640000548014603B4684680F3098800BF00BF1F
:1016500000BF00BFFFF7C0FFA5EDF5FE00127A0046
:10166000000000000024F400008000000080000062
:10167000008000008169891E0978C9B20160704745
:1016800000080008FFFF0008000000000000000044
:10169000000000000000000000000000000000004A
:1016A0000000000000000000FEE70000FEE7000070
:1016B000FEE70000FEE70000FEE70000FEE7000096
:1016C000FEE70000FEE70000FEE70000FEE7000086
:1016D000FEE7F002FF1510001004F1FF04F1FF0413
:1016E000F1FF04F1FF04F11F04120001F31D0600D5
:1016F00001000000000000000000000000000000E9
:1017000000000000000000000000000000000000D9
:1017100000000000000000000000000000000000C9
:1017200000000000000000000000000000000000B9
:1017300000000000000000000000000000000000A9
:101740000000000000000000000000000000000099
:101750000000000000000000000000000000000089
:101760000000000000000000000000000000000079
:101770000000000000000000000000000000000069
:101780000000000000000000000000000000000059
:101790000000000000000000000000000000000049
:1017A0000000000000000000000000000000000039
:1017B0000000000000000000000000000000000029
:0717C0000000000000000022
:040000051000164190
:00000001FF
