:020000040801F1
:1000000000E60108011101082D1301082112010861
:1000100031130108351301083913010800000000ED
:10002000000000000000000000000000A91201080C
:100030003D130108000000004113010845130108A9
:10004000D70A0108FD0A0108230B0108490B010822
:100050006F0B0108950B0108BB0B0108E10B0108B0
:10006000491301084D1301085113010855130108E4
:10007000591301085D130108611301086513010894
:10008000DFF8B8110868C0F34000002801D0022052
:1000900002E0086810F001007047DFF8A401006872
:1000A00010F00100704700000100FF20002909D076
:1000B000022907D2DFF8980100EB810050F8040C08
:1000C00010F00100C0B27047DFF8880100688008B6
:1000D00010F001007047000038B504002000C0B2E5
:1000E000032811D3DFF85C511822DFF85C112800D7
:1000F00000F0D0FA0020E87540F2C260DFF84C1141
:100100000860002000F0FEFADFF89001E4B250F839
:10011000240010F00F0032BD38B504002000C0B23A
:10012000032811D3DFF81C511822DFF81C11280016
:1001300000F0B0FA0020E8754FF4DE60DFF80C1133
:100140000860002000F0DEFADFF85001E4B250F859
:100150002400C0F30110C0B232BDDFF844010068D2
:10016000C0F30720704738B50400042C11D3DFF822
:10017000D4501822DFF85011280000F08BFA00202C
:10018000E87540F29510DFF8C4100860002000F018
:10019000B9FADFF8300150F8240010F00700010030
:1001A00009B2042907D1DFF8FC0050F8240010F050
:1001B0001F0050F4807000B232BD1F4909688A03E5
:1001C000920B0260090E11F00101C171DFF82412D7
:1001D00009680A00D204D20C82800A00120C02F0D4
:1001E000FF020281090C01F0FF014181DFF8641177
:1001F000096811F00F0202730A00C2F3031242737E
:100200000A00120AD204D20CC281090F11F00301B4
:100210000174DFF8901309680A00120A12F007024D
:1002200082710A00120CD205D20D4282890F11F0A0
:100230000101017570470000301526402415264045
:1002400040152640A819010804100108C01901082A
:10025000401626401000274002000120002A1AD034
:10026000022A18D2DFF8100400EB820050F8040CC8
:1002700010F07F020A60C0F304224A60C0F3044217
:100280008A600200120F12F003024A73C00E10F0CF
:10029000010008730020C0B27047000040122640E1
:1002A000080020400001264080B50100DFF8D0039F
:1002B000182200F07BFA0120DFF8C8130870002034
:1002C00002BD00000012264058100108DFF8B813E4
:1002D0000968C90F002908D0DFF8A8130978002998
:1002E00007D1002101600320704700210160032035
:1002F000FAE7DFF88C13096801600020F4E70000DA
:1003000010B50400FFF7BCFE002803D100202060D8
:1003100003200DE0DFF86C030078002805D0DFF83B
:10032000600380682060002002E00020206003203D
:1003300010BD0000DFF84C130978002905D0DFF864
:10034000401349680160002002E0002101600320A1
:100350007047000038152640DFF830130968C90FD0
:10036000002908D0DFF81C130978002907D10021E3
:10037000016003207047002101600320FAE7DFF8E5
:100380000013C96801600020F4E70000DFF80013E3
:100390000968C90F002908D0DFF8E8120978002998
:1003A00007D1002101600320704700210160032074
:1003B000FAE7DFF8CC12096901600020F4E70000D9
:1003C00010B50400FFF780FE002803D10020206054
:1003D00003200DE0DFF8AC020078002805D0DFF83C
:1003E000A00240692060002002E00020206003207D
:1003F00010BD00003415264010B50C00C0B2FFF748
:10040000B2FE00280ED0012810D0022812D0B0F57C
:10041000887F13D040F21111884213D0B0F58A7F43
:1004200014D017E02000FFF751FF16E02000FFF77F
:1004300081FF12E02000FFF763FF0EE02000FFF7CE
:100440008BFF0AE02000FFF7BBFF06E02000FFF76C
:100450009DFF02E000202060032010BD80B5010058
:100460000020FFF7C9FF02BD80B50022D2B2824250
:1004700003D200200860012003E0401CC0B2FFF757
:10048000BBFF02BD18B587B004006846FFF7E6FF62
:100490000100C9B2002903D000212160C0B22BE0C5
:1004A00001A8FFF78AFE9DF81400022803D10098E6
:1004B0002060002020E0DFF8C4010068C00F0028A1
:1004C00008D0FFF7EAFDC0B2002807D10020206065
:1004D000032011E00098206000200DE000990198B1
:1004E0004143BDF80800B1FBF0F09DF80B10491C2A
:1004F000B0FBF1F02060002008B010BD30B585B031
:1005000005000C0069462800C0B2FFF7ADFF0100EE
:10051000C9B2002903D000212160C0B23FE001A987
:100520002800C0B2401CFFF797FE9DF8110002287A
:1005300003D100982060002031E000202900C0B2E3
:10054000C9B2884203D200202060012027E02800A1
:10055000C0B2401CFFF7A8FD002801D0012000E038
:100560000020C0B2002803D100202060032016E044
:10057000DFF80401EDB250F82500C00F00280BD0C1
:100580000099019841430298B1FBF0F00399B0FB48
:10059000F1F02060002002E000202060032005B080
:1005A00030BD00003C15264010B50023421E04005B
:1005B000E4B2002C03D10800FFF764FF0CE0140044
:1005C000DBB2E4B2A34204D31000C0B2FFF796FF3F
:1005D00002E0C0B2FFF710FF10BD38B505000C00F7
:1005E0002800C0B2FFF778FD6946C0B2FFF7DCFF14
:1005F0000100C9B2002903D000212160C0B20FE080
:100600002800C0B2FFF788FDC0B2002805D002283C
:100610000BD006D303280CD00FE0009820600020F8
:1006200032BD009840082060F9E7009880082060FB
:10063000F5E70098C0082060F1E700202060032063
:10064000EEE71CB5040069460020FFF7C6FF010075
:10065000C9B2002903D000212160C0B207E0FFF732
:100660007CFD0099401CB1FBF0F02060002016BD1D
:1006700080B5FFF7E6FF02BD001626403015264084
:1006800090190108D81901081815264008152640A8
:100690000C15264001B58B071AD1830724D1121FF0
:1006A00021D351F8043BA3F1013C2CEA030C1CF0CC
:1006B000803C04BF40F8043BF1E79CFA8CFCBCFA98
:1006C0008CF1C1F118018B40CB4040F8043B13E0A2
:1006D000042A09D311F8013B521E00F8013B5BB11B
:1006E0008B07F7D1D9E7121D5AB111F8013B521E01
:1006F00000F8013B03B1F8D111001CBF002200F04B
:10070000D7F801BD01BEFEE780B5234A23490B6837
:1007100093423ED00A60224A12684A62214A8A62A3
:1007200002684A6042688A608268CA60C2680A6178
:1007300002694A6142698A618269CA61C2690A6260
:10074000F1EE102A12F0900F23D0174A8A62026A43
:10075000CA62426A0A63826A4A63C26A8A63026B35
:10076000CA63426B0A64826B4A64C26B8A64026C1D
:10077000CA64426C0A65826C4A65C26C8A65026D05
:10078000CA65426D0A66826D4A66C26D8A66006EEF
:10079000C86600F0BCF801BDF7F6F5F420190108B1
:1007A00028ED00E0A4A3A2A1ABAAA9A8103A07D300
:1007B00030B4B1E83810103AA0E83810F9D230BCA3
:1007C000530724BFB1E80810A0E8081044BF51F84F
:1007D000043B40F8043BD20724BF31F8022B20F839
:1007E000022B44BF0B7803707047121F17D35B00B6
:1007F00009D151F8043B20F8023B1B0C121F20F8D2
:10080000023BF6D20BE051F8043B00F8013B1B0A17
:1008100020F8023B1B0C121F00F8013BF3D238BF3B
:10082000121D521E24BF11F8013B00F8013BF8D8FD
:100830007047F0B40246106895681318506803EBCF
:100840005004C00748BF4D44A3422DD013F8016B9C
:1008500016F0030004BF13F8010BC01C31090F2967
:1008600007D113F8011B0F3103E013F8017B05F8E2
:10087000017B401EF9D10029E6D013F8010BC6F325
:100880008106032E08BF13F8016B00EB06204042DF
:1008900028440026B71E8F421EBF10F8017B05F8C2
:1008A000017B761CF6D1CFE7F0BC02F10C0070475B
:1008B000401810F0030308D0C91A1FD3DB0748BF44
:1008C00000F8012D28BF20F8022D130030B4144683
:1008D0001546103928BF20E93C00FAD8490728BF3F
:1008E00020E90C0048BF40F8042D890028BF20F8FB
:1008F000022D48BF00F8012D30BC7047C91818BF41
:1009000000F8012DCB0728BF00F8012D7047FEE746
:1009100030B4664B1818C009654B13EB001304295B
:100920000FD21C681F25C80015FA00F034EA000039
:10093000D2B212F01F02C90012FA01F1014319608C
:100940000EE0081F5C681F25C10015FA01F134EAAA
:100950000101D2B212F01F02C00082400A435A6065
:1009600030BC7047002A04D1012212FA01F1416023
:1009700003E0012212FA01F18160704710B489008E
:10098000446C0F238B4034EA030312F00F0212FA77
:1009900001F11943416410BC704710B4846C012309
:1009A0008B4034EA030312F0010212FA01F11943F9
:1009B000816410BC704710B4C46C01238B4034EACE
:1009C000030312F0010212FA01F11943C16410BCD1
:1009D000704710B449001031C46C03238B4034EAD3
:1009E000030312F0030212FA01F11943C16410BCAF
:1009F00070474269012212FA01F141614069704772
:100A000010B4846901238B4034EA030312F001021D
:100A100012FA01F11943816110BC704710B449000A
:100A2000046C03238B4034EA030312F0030212FA2E
:100A300001F11943016410BC7047F8B505000E00C0
:100A400014000027002D2ED0002C2CD0226831005D
:100A50002800FFF787FF227A31002800FFF758FFB0
:100A6000626931002800FFF798FFA2693100280071
:100A7000FFF7A1FFE26931002800FFF7AAFF6268D3
:100A800031002800FFF77AFFE26831002800FFF705
:100A9000C5FF31002800FFF7ACFF226931002800B4
:100AA000FFF7AEFF00E0034F3800F2BD0000CFBFFC
:100AB0000000304001005A00010009B2002908D4AA
:100AC000012210F01F018A404F4900B2400941F84D
:100AD00020207047FEE780B54C4800684C4801680C
:100AE0000800C00F002805D04A488905890D50F834
:100AF000210080470020FFF7DFFF01BD80B5464899
:100B00000068464801680800C00F002805D0414829
:100B10008905890D50F8210080470120FFF7CCFF9F
:100B200001BD80B53E4800683E4801680800C00F1E
:100B3000002805D037488905890D50F821008047E5
:100B40000220FFF7B9FF01BD80B53748006837487C
:100B500001680800C00F002805D02E488905890DBE
:100B600050F8210080470320FFF7A6FF01BD80B5A4
:100B70002F4800682F4801680800C00F002805D0E2
:100B800024488905890D50F8210080470420FFF78B
:100B900093FF01BD80B52848006828480168080017
:100BA000C00F002805D01B488905890D50F8210089
:100BB00080470520FFF780FF01BD80B52048006811
:100BC000204801680800C00F002805D01148890599
:100BD000890D50F8210080470620FFF76DFF01BD09
:100BE00080B519480068194801680800C00F00283E
:100BF00005D008488905890D50F821008047072055
:100C0000FFF75AFF01BD000080E200E00C1301086D
:100C1000000120406813010810130108040120405E
:100C20001413010808012040181301080C0120408A
:100C30001C1301081001204020130108140120405A
:100C40002413010818012040281301081C0120402A
:100C500080B500F003F900F003F800F089F801BD59
:100C60007CB568464F49D1E90023C0E90023002044
:100C70000AE069460200D2B201EBC2014968491C90
:100C800011F0070F0DD1401C0100C9B2002909D194
:100C900069460200D2B211F8321011F0070FE8D005
:100CA000FEE7FEE7404C207810F0070F00D0FEE78B
:100CB0003E4D2868401C10F0070F00D0FEE70026CC
:100CC00022E068463100C9B200EBC1004168300043
:100CD000C0B252F8300000F042F814E000200028C2
:100CE000EFD02168491E3000C0B252F8300000F049
:100CF00036F868463100C9B200EBC1004168286887
:100D0000401C00F02CF8761C3000C0B2002825D121
:100D10006A463000C0B252F83000002813D0206874
:100D20003100C9B252F8311088420AD36846310006
:100D3000C9B200EBC10040682168884201D301209C
:100D4000CDE70020CBE768463100C9B200EBC10017
:100D5000406821688842C1D30120C0E773BD0022EA
:100D6000002302E0C0E9002308308842FAD370472C
:100D700030B40F4880080F490F4A002308E01C00D8
:100D8000E4B252F824401D00EDB241F825405B1C4E
:100D90001C000500E4B2EDB2AC42F0D3074801609C
:100DA00030BC7047041301083C11010840110108D0
:100DB00080000000001C01080000010808ED00E0B0
:100DC00080B500F001F801BD38B586B068462B4902
:100DD0001822FFF7EBFC6846FFF766FAC0B200285E
:100DE0000DD0274C182227492000FFF753FC002084
:100DF000E0754A20244908600020FFF783FC234D5A
:100E00002800FFF735FCC0B200280DD01C4C18227A
:100E10001C492000FFF73EFC0020E0754C201A49D9
:100E200008600020FFF76EFC1949286808600A680E
:100E3000184882181848B2FBF0F0184A1060184899
:100E4000096801F2E7314FF47A72B1FBF2F1016007
:100E50000068C0031349086007B030BD80B500F0DA
:100E600025F811490A6852F470020A60BFF34F8FE7
:100E7000BFF36F8F00F01EF801BD0000E012010803
:100E8000A8190108A80F0108C0190108C419010810
:100E9000C81901083F420F0040420F00D019010855
:100EA000CC190108D419010888ED00E0EFF3108097
:100EB00072B6704780F3108870470000F8B50400E0
:100EC0000D00354E307800280ED0304F18223049B2
:100ED0003800FFF7DFFB0020F8754FF4CF702D4985
:100EE00008600020FFF70EFC20002900012232706C
:100EF0005FF08072002399420AD301D8904207D351
:100F00007FF07F42254C5FF0FF350019694102E018
:100F10000200002000211A4B00241C60194C2260A2
:100F20000022194C226005221A601A68D203FCD5EF
:100F300000221A600029DBD10028D9D100203070AE
:100F4000F1BD70B50400164D286800280ED10F4E73
:100F500018220F493000FFF79DFB0020F0754FF479
:100F6000E5700C4908600020FFF7CCFB28680D49AC
:100F7000B0FBF1F0A4FB0001FFF7A0FF70BD000083
:100F800010E000E014E000E018E000E0A81901081B
:100F9000AC100108C0190108D9190108010000FFAF
:100FA000C419010840420F00443A5C5472617665EE
:100FB0006F5C5432475F53616D706C655F4472695A
:100FC0007665725F4C6962726172795F382E332E7A
:100FD000305C747669696265316D5C7372635C73F1
:100FE000797374656D5C7265765F625C7379737436
:100FF000656D5F747669696265316D5F636D342E0E
:1010000063000000443A5C54726176656F5C543250
:10101000475F53616D706C655F4472697665725F9E
:101020004C6962726172795F382E332E305C74764F
:1010300069696265316D5C7372635C64726976655F
:1010400072735C737973636C6B5C63795F737973D0
:10105000636C6B2E68000000443A5C5472617665E4
:101060006F5C5432475F53616D706C655F447269A9
:101070007665725F4C6962726172795F382E332EC9
:10108000305C747669696265316D5C7372635C644F
:101090007269766572735C737973636C6B5C637988
:1010A0005F737973636C6B2E63000000443A5C5489
:1010B000726176656F5C5432475F53616D706C6529
:1010C0005F4472697665725F4C6962726172795FC2
:1010D000382E332E305C636F6D6D6F6E5C73726390
:1010E0005C647269766572735C7379737469636B3F
:1010F0005C63795F7379737469636B2E63000000BE
:1011000072B6094809490860BFF34F8F00200021DB
:101110000A4AE2E802016A45FBD1054FB847054F8C
:10112000B847054FB847FEE70000010808ED00E0AA
:10113000510C0108B5110108C512010800E50108AC
:10114000FFE50108012212FA01F1C160704710B5F4
:1011500062B6FFF735FE074C074A03212000FFF770
:101160006CFC4CF25030FFF7ECFE03212000FFF73F
:10117000E9FFF6E780093140EC18010830B400259A
:1011800012E050F8042BD30744BF4A44521E091FF3
:10119000042942F8045BFAD213468C0744BF158039
:1011A0009B1CC90748BF1D7050F8041B0029E8D1DB
:1011B00030BC704710B5074979441831064C7C445F
:1011C000163404E00A68081D114488470146A1420C
:1011D000F8D110BD2C000000480000004EF68851E8
:1011E000CEF20001086840F470000860BFF34F8F32
:1011F000BFF36F8F4FF00170E1EE100A70470000EF
:101200007DFFFFFFBC000000201901080000000066
:1012100023F6FFFF6C0A00003E000000681301087F
:1012200004207146084202D0EFF3098001E0EFF399
:10123000088000B50149884700BD00000907010882
:10124000801C800803D0401C801EFCD100BF70476A
:10125000EFF3108072B6704780F31088704700007B
:1012600000F00EF8002801D0FFF7A4FFAFF30080D4
:101270000020AFF30080FFF76AFF00F003F80000E2
:101280000020704700F000B80746384600F002F82A
:10129000FBE7000080B5AFF30080024A1100182080
:1012A000ABBEFBE72600020004207146084201D0D5
:1012B000EFF30980EFF3088000B50149884700BDCE
:1012C000F91201080548014603B4684680F309880D
:1012D000AFF30080FFF782FFFFF7C2FFA5EDF5FE39
:1012E00000127A00000000000024F40000800000DA
:1012F0000080000000800000816911F8021CC9B262
:101300000160704700000108FFFF000800000000B6
:1013100000000000000000000000000000000000CD
:10132000000000000000000000000000FFF7FEBF0A
:10133000FFF776BFFFF774BFFFF772BFFFF7FEBF7F
:10134000FFF7FEBFFFF7FEBFFFF7FEBFFFF7FEBFD1
:10135000FFF7FEBFFFF7FEBFFFF7FEBFFFF7FEBFC1
:10136000FFF7FEBFFFF7FEBF000000000000000017
:10137000000000000000000000000000000000006D
:10138000000000000000000000000000000000005D
:10139000000000000000000000000000000000004D
:1013A000000000000000000000000000000000003D
:101C8000F002FFD50A010804F1FF04F1FF04F1FF9F
:101C900004F1FF04F11F04120001F31D060001000E
:101CA0000000000000000000000000000000000034
:101CB0000000000000000000000000000000000024
:101CC0000000000000000000000000000000000014
:101CD0000000000000000000000000000000000004
:101CE00000000000000000000000000000000000F4
:101CF00000000000000000000000000000000000E4
:101D000000000000000000000000000000000000D3
:101D100000000000000000000000000000000000C3
:101D200000000000000000000000000000000000B3
:101D300000000000000000000000000000000000A3
:101D40000000000000000000000000000000000093
:101D50000000000000000000000000000000000083
:101D60000000000000000000000000000000000073
:051D700000000000006E
:04000005080112C517
:00000001FF
